{
  "contractName": "Funder",
  "abi": [
    {
      "inputs": [],
      "name": "numOfFunders",
      "outputs": [
        {
          "internalType": "uint256",
          "name": "",
          "type": "uint256"
        }
      ],
      "stateMutability": "view",
      "type": "function"
    },
    {
      "stateMutability": "payable",
      "type": "receive"
    },
    {
      "inputs": [],
      "name": "transfer1",
      "outputs": [],
      "stateMutability": "payable",
      "type": "function"
    },
    {
      "inputs": [
        {
          "internalType": "uint256",
          "name": "withdrawAmount",
          "type": "uint256"
        }
      ],
      "name": "withdraw",
      "outputs": [],
      "stateMutability": "nonpayable",
      "type": "function"
    }
  ],
  "bytecode": "0x608060405234801561001057600080fd5b506103ac806100206000396000f3fe6080604052600436106100385760003560e01c80632e1a7d4d14610044578063343bfdff1461006d578063af7f2c9b146100775761003f565b3661003f57005b600080fd5b34801561005057600080fd5b5061006b60048036038101906100669190610210565b6100a2565b005b61007561017a565b005b34801561008357600080fd5b5061008c6101cf565b604051610099919061024c565b60405180910390f35b671bc16d674ec800008111156100ed576040517f08c379a00000000000000000000000000000000000000000000000000000000081526004016100e4906102ea565b60405180910390fd5b47811115610130576040517f08c379a000000000000000000000000000000000000000000000000000000000815260040161012790610356565b60405180910390fd5b3373ffffffffffffffffffffffffffffffffffffffff166108fc829081150290604051600060405180830381858888f19350505050158015610176573d6000803e3d6000fd5b5050565b33600160008054815260200190815260200160002060006101000a81548173ffffffffffffffffffffffffffffffffffffffff021916908373ffffffffffffffffffffffffffffffffffffffff160217905550565b60005481565b600080fd5b6000819050919050565b6101ed816101da565b81146101f857600080fd5b50565b60008135905061020a816101e4565b92915050565b600060208284031215610226576102256101d5565b5b6000610234848285016101fb565b91505092915050565b610246816101da565b82525050565b6000602082019050610261600083018461023d565b92915050565b600082825260208201905092915050565b7f43616e6e6f74207769746864726177206d6f7265207468616e2032206574686560008201527f7200000000000000000000000000000000000000000000000000000000000000602082015250565b60006102d4602183610267565b91506102df82610278565b604082019050919050565b60006020820190508181036000830152610303816102c7565b9050919050565b7f496e73756666696369656e7420636f6e74726163742062616c616e6365000000600082015250565b6000610340601d83610267565b915061034b8261030a565b602082019050919050565b6000602082019050818103600083015261036f81610333565b905091905056fea2646970667358221220c69abd6eb91b17967c5cbb044463a88be286f651f0b43bd55aede8481da7cc0864736f6c63430008090033",
  "immutableReferences": {},
  "source": "// SPDX-License-Identifier: MIT\r\npragma solidity >=0.4.22 <0.9.0;\r\n\r\ncontract Funder {\r\n    uint256 public numOfFunders;\r\n\r\n    mapping(uint256 => address) private funders;\r\n\r\n    receive() external payable {}\r\n\r\n    function transfer1() external payable {\r\n        funders[numOfFunders] = msg.sender;\r\n    }\r\n\r\n    function withdraw(uint256 withdrawAmount) external  {\r\n    require(\r\n        withdrawAmount <= 2000000000000000000,\r\n        \"Cannot withdraw more than 2 ether\"\r\n    );\r\n    require(withdrawAmount <= address(this).balance, \"Insufficient contract balance\");\r\n    payable(msg.sender).transfer(withdrawAmount);\r\n}\r\n}\r\n",
  "sourcePath": "F:\\W3-amazon\\Fund\\contracts\\Funder.sol",
  "compiler": {
    "name": "solc",
    "version": "0.8.9+commit.e5eed63a.Emscripten.clang"
  },
  "schemaVersion": "3.4.11",
  "updatedAt": "2023-05-26T16:20:25.151Z",
  "devdoc": {
    "kind": "dev",
    "methods": {},
    "version": 1
  },
  "userdoc": {
    "kind": "user",
    "methods": {},
    "version": 1
  }
}